{
  "_format": "hh-sol-artifact-1",
  "contractName": "Bridge",
  "sourceName": "contracts/Bridge.sol",
  "abi": [
    {
      "inputs": [
        {
          "internalType": "address",
          "name": "tokenAddress",
          "type": "address"
        }
      ],
      "stateMutability": "nonpayable",
      "type": "constructor"
    },
    {
      "inputs": [],
      "name": "NotSameLength",
      "type": "error"
    },
    {
      "inputs": [],
      "name": "OnlyControllers",
      "type": "error"
    },
    {
      "inputs": [],
      "name": "TransferFailed",
      "type": "error"
    },
    {
      "inputs": [],
      "name": "ZeroBalance",
      "type": "error"
    },
    {
      "anonymous": false,
      "inputs": [
        {
          "indexed": false,
          "internalType": "address",
          "name": "depositor",
          "type": "address"
        },
        {
          "indexed": false,
          "internalType": "uint256",
          "name": "amount",
          "type": "uint256"
        }
      ],
      "name": "OnDeposit",
      "type": "event"
    },
    {
      "anonymous": false,
      "inputs": [
        {
          "indexed": false,
          "internalType": "address",
          "name": "depositor",
          "type": "address"
        },
        {
          "indexed": false,
          "internalType": "uint256",
          "name": "amount",
          "type": "uint256"
        }
      ],
      "name": "OnWithdraw",
      "type": "event"
    },
    {
      "anonymous": false,
      "inputs": [
        {
          "indexed": true,
          "internalType": "address",
          "name": "previousOwner",
          "type": "address"
        },
        {
          "indexed": true,
          "internalType": "address",
          "name": "newOwner",
          "type": "address"
        }
      ],
      "name": "OwnershipTransferred",
      "type": "event"
    },
    {
      "anonymous": false,
      "inputs": [
        {
          "indexed": false,
          "internalType": "address",
          "name": "account",
          "type": "address"
        }
      ],
      "name": "Paused",
      "type": "event"
    },
    {
      "anonymous": false,
      "inputs": [
        {
          "indexed": false,
          "internalType": "address",
          "name": "account",
          "type": "address"
        }
      ],
      "name": "Unpaused",
      "type": "event"
    },
    {
      "inputs": [],
      "name": "accumulatedFees",
      "outputs": [
        {
          "internalType": "uint256",
          "name": "",
          "type": "uint256"
        }
      ],
      "stateMutability": "view",
      "type": "function"
    },
    {
      "inputs": [
        {
          "internalType": "address",
          "name": "controller",
          "type": "address"
        }
      ],
      "name": "addController",
      "outputs": [],
      "stateMutability": "nonpayable",
      "type": "function"
    },
    {
      "inputs": [
        {
          "internalType": "address",
          "name": "",
          "type": "address"
        }
      ],
      "name": "claimableTokens",
      "outputs": [
        {
          "internalType": "uint256",
          "name": "",
          "type": "uint256"
        }
      ],
      "stateMutability": "view",
      "type": "function"
    },
    {
      "inputs": [
        {
          "internalType": "uint256",
          "name": "amount",
          "type": "uint256"
        }
      ],
      "name": "deposit",
      "outputs": [],
      "stateMutability": "nonpayable",
      "type": "function"
    },
    {
      "inputs": [
        {
          "internalType": "uint256",
          "name": "",
          "type": "uint256"
        }
      ],
      "name": "depositsHistory",
      "outputs": [
        {
          "internalType": "address",
          "name": "depositor",
          "type": "address"
        },
        {
          "internalType": "uint256",
          "name": "amount",
          "type": "uint256"
        }
      ],
      "stateMutability": "view",
      "type": "function"
    },
    {
      "inputs": [],
      "name": "fee",
      "outputs": [
        {
          "internalType": "uint256",
          "name": "",
          "type": "uint256"
        }
      ],
      "stateMutability": "view",
      "type": "function"
    },
    {
      "inputs": [
        {
          "internalType": "uint256",
          "name": "startNonce",
          "type": "uint256"
        }
      ],
      "name": "getDepositsSinceStartingNonce",
      "outputs": [
        {
          "internalType": "address[]",
          "name": "depositors",
          "type": "address[]"
        },
        {
          "internalType": "uint256[]",
          "name": "amount",
          "type": "uint256[]"
        }
      ],
      "stateMutability": "view",
      "type": "function"
    },
    {
      "inputs": [],
      "name": "nonceOtherChain",
      "outputs": [
        {
          "internalType": "uint256",
          "name": "",
          "type": "uint256"
        }
      ],
      "stateMutability": "view",
      "type": "function"
    },
    {
      "inputs": [],
      "name": "nonceThisChain",
      "outputs": [
        {
          "internalType": "uint256",
          "name": "",
          "type": "uint256"
        }
      ],
      "stateMutability": "view",
      "type": "function"
    },
    {
      "inputs": [],
      "name": "owner",
      "outputs": [
        {
          "internalType": "address",
          "name": "",
          "type": "address"
        }
      ],
      "stateMutability": "view",
      "type": "function"
    },
    {
      "inputs": [],
      "name": "paused",
      "outputs": [
        {
          "internalType": "bool",
          "name": "",
          "type": "bool"
        }
      ],
      "stateMutability": "view",
      "type": "function"
    },
    {
      "inputs": [
        {
          "internalType": "address",
          "name": "_token",
          "type": "address"
        },
        {
          "internalType": "uint256",
          "name": "_tokenId",
          "type": "uint256"
        }
      ],
      "name": "recoverNonFungibleToken",
      "outputs": [],
      "stateMutability": "nonpayable",
      "type": "function"
    },
    {
      "inputs": [
        {
          "internalType": "address",
          "name": "_token",
          "type": "address"
        }
      ],
      "name": "recoverToken",
      "outputs": [],
      "stateMutability": "nonpayable",
      "type": "function"
    },
    {
      "inputs": [
        {
          "internalType": "address",
          "name": "controller",
          "type": "address"
        }
      ],
      "name": "removeController",
      "outputs": [],
      "stateMutability": "nonpayable",
      "type": "function"
    },
    {
      "inputs": [],
      "name": "renounceOwnership",
      "outputs": [],
      "stateMutability": "nonpayable",
      "type": "function"
    },
    {
      "inputs": [
        {
          "internalType": "uint256",
          "name": "newFee",
          "type": "uint256"
        }
      ],
      "name": "setFee",
      "outputs": [],
      "stateMutability": "nonpayable",
      "type": "function"
    },
    {
      "inputs": [
        {
          "internalType": "bool",
          "name": "state",
          "type": "bool"
        }
      ],
      "name": "setPause",
      "outputs": [],
      "stateMutability": "nonpayable",
      "type": "function"
    },
    {
      "inputs": [
        {
          "internalType": "address",
          "name": "tokenAddress",
          "type": "address"
        }
      ],
      "name": "setToken",
      "outputs": [],
      "stateMutability": "nonpayable",
      "type": "function"
    },
    {
      "inputs": [
        {
          "internalType": "address",
          "name": "newOwner",
          "type": "address"
        }
      ],
      "name": "transferOwnership",
      "outputs": [],
      "stateMutability": "nonpayable",
      "type": "function"
    },
    {
      "inputs": [
        {
          "internalType": "address[]",
          "name": "depositor",
          "type": "address[]"
        },
        {
          "internalType": "uint256[]",
          "name": "amount",
          "type": "uint256[]"
        }
      ],
      "name": "updateDeposits",
      "outputs": [],
      "stateMutability": "nonpayable",
      "type": "function"
    },
    {
      "inputs": [],
      "name": "withdraw",
      "outputs": [],
      "stateMutability": "nonpayable",
      "type": "function"
    }
  ],
  "bytecode": "0x608060405260646001556000600255600060045534801561001f57600080fd5b506040516114d43803806114d483398101604081905261003e916100e1565b61004733610091565b6000805460ff60a01b19168155600380546001600160a01b0319166001600160a01b039390931692909217909155338152600660205260409020805460ff19166001179055610111565b600080546001600160a01b038381166001600160a01b0319831681178455604051919092169283917f8be0079c531659141344cd1fd0a4f28419497f9722a3daafe3b4186f6b6457e09190a35050565b6000602082840312156100f357600080fd5b81516001600160a01b038116811461010a57600080fd5b9392505050565b6113b4806101206000396000f3fe608060405234801561001057600080fd5b50600436106101775760003560e01c8063a7fc7a07116100d8578063ddca3f431161008c578063f2fde38b11610066578063f2fde38b146102ff578063f62b74ec14610312578063f6a74ed71461031b57600080fd5b8063ddca3f43146102a3578063f1f35573146102ac578063f2aa5e8d146102cd57600080fd5b8063bb0fd147116100bd578063bb0fd1471461026a578063bedb86fb1461027d578063d41f749c1461029057600080fd5b8063a7fc7a0714610244578063b6b55f251461025757600080fd5b8063715018a61161012f57806385f02acc1161011457806385f02acc1461020d5780638da5cb5b146102165780639be65a601461023157600080fd5b8063715018a6146101e557806384d24226146101ed57600080fd5b8063587f5ed711610160578063587f5ed7146101995780635c975abb146101b557806369fe0e2d146101d257600080fd5b8063144fa6d71461017c5780633ccfd60b14610191575b600080fd5b61018f61018a366004610ff4565b61032e565b005b61018f610365565b6101a260025481565b6040519081526020015b60405180910390f35b600054600160a01b900460ff1660405190151581526020016101ac565b61018f6101e0366004611016565b61047c565b61018f610489565b6101a26101fb366004610ff4565b60076020526000908152604090205481565b6101a260045481565b6000546040516001600160a01b0390911681526020016101ac565b61018f61023f366004610ff4565b61049d565b61018f610252366004610ff4565b61062e565b61018f610265366004611016565b610694565b61018f61027836600461102f565b610998565b61018f61028b366004611067565b610a0a565b61018f61029e36600461115a565b610a28565b6101a260015481565b6102bf6102ba366004611016565b610b30565b6040516101ac92919061121a565b6102e06102db366004611016565b610ca6565b604080516001600160a01b0390931683526020830191909152016101ac565b61018f61030d366004610ff4565b610cde565b6101a260085481565b61018f610329366004610ff4565b610d70565b610336610dd2565b6003805473ffffffffffffffffffffffffffffffffffffffff19166001600160a01b0392909216919091179055565b61036d610e2c565b336000908152600760205260408120549081900361039e5760405163334ab3f560e11b815260040160405180910390fd5b336000818152600760205260408082209190915560035490517fa9059cbb0000000000000000000000000000000000000000000000000000000081526004810192909252602482018390526001600160a01b03169063a9059cbb906044016020604051808303816000875af115801561041b573d6000803e3d6000fd5b505050506040513d601f19601f8201168201806040525081019061043f919061129e565b5060408051338152602081018390527fbace9fd79d5ea02ed8b43fa96af07e4e8f859a2f71ff878c748f5c22c5780284910160405180910390a150565b610484610dd2565b600155565b610491610dd2565b61049b6000610e86565b565b6104a5610dd2565b6003546001600160a01b0390811690821603610564576002546000036104de5760405163334ab3f560e11b815260040160405180910390fd5b6002805460009091556040516323b872dd60e01b8152306004820152336024820152604481018290526001600160a01b038316906323b872dd906064015b6020604051808303816000875af115801561053b573d6000803e3d6000fd5b505050506040513d601f19601f8201168201806040525081019061055f919061129e565b505050565b6040516370a0823160e01b81523060048201526000906001600160a01b038316906370a0823190602401602060405180830381865afa1580156105ab573d6000803e3d6000fd5b505050506040513d601f19601f820116820180604052508101906105cf91906112bb565b9050806000036105f25760405163334ab3f560e11b815260040160405180910390fd5b6040516323b872dd60e01b8152306004820152336024820152604481018290526001600160a01b038316906323b872dd9060640161051c565b50565b610636610dd2565b6001600160a01b03811660009081526006602052604090205460ff16156106705760405163587f873960e11b815260040160405180910390fd5b6001600160a01b03166000908152600660205260409020805460ff19166001179055565b61069c610e2c565b806000036106bd5760405163334ab3f560e11b815260040160405180910390fd5b6003546040516370a0823160e01b81523060048201526000916001600160a01b0316906370a0823190602401602060405180830381865afa158015610706573d6000803e3d6000fd5b505050506040513d601f19601f8201168201806040525081019061072a91906112bb565b6003546040516323b872dd60e01b8152336004820152306024820152604481018590529192506000916001600160a01b03909116906323b872dd906064016020604051808303816000875af1158015610787573d6000803e3d6000fd5b505050506040513d601f19601f820116820180604052508101906107ab919061129e565b9050806107e4576040517f90b8ec1800000000000000000000000000000000000000000000000000000000815260040160405180910390fd5b6003546040516370a0823160e01b815230600482015283916001600160a01b0316906370a0823190602401602060405180830381865afa15801561082c573d6000803e3d6000fd5b505050506040513d601f19601f8201168201806040525081019061085091906112bb565b61085a91906112ea565b925060006127106001548561086f9190611303565b610879919061131a565b9050600061088782866112ea565b604080518082019091523381526020810182815260058054600181018255600091825292517f036b6384b5eca791c62761152d0c79bb0604c104a5fb6f4eb0703f3154bb3db06002909402938401805473ffffffffffffffffffffffffffffffffffffffff19166001600160a01b0390921691909117905590517f036b6384b5eca791c62761152d0c79bb0604c104a5fb6f4eb0703f3154bb3db190920191909155600480549293509161093a9061133c565b9190508190555081600260008282546109539190611355565b909155505060408051338152602081018390527fa9376856550cfe9f0d25894ccc2b7caa4aeffd8b24c8bc99159a8d3de8fe6aaa910160405180910390a15050505050565b6109a0610dd2565b6040516323b872dd60e01b8152306004820152336024820152604481018290526001600160a01b038316906323b872dd90606401600060405180830381600087803b1580156109ee57600080fd5b505af1158015610a02573d6000803e3d6000fd5b505050505050565b610a12610dd2565b8015610a205761062b610ee3565b61062b610f43565b3360009081526006602052604090205460ff16610a585760405163587f873960e11b815260040160405180910390fd5b8051825114610a93576040517f200ad92c00000000000000000000000000000000000000000000000000000000815260040160405180910390fd5b60005b8251811015610b1357818181518110610ab157610ab1611368565b602002602001015160076000858481518110610acf57610acf611368565b60200260200101516001600160a01b03166001600160a01b031681526020019081526020016000206000828254610b069190611355565b9091555050600101610a96565b50815160086000828254610b279190611355565b90915550505050565b60608082600454610b4191906112ea565b67ffffffffffffffff811115610b5957610b59611084565b604051908082528060200260200182016040528015610b82578160200160208202803683370190505b50915082600454610b9391906112ea565b67ffffffffffffffff811115610bab57610bab611084565b604051908082528060200260200182016040528015610bd4578160200160208202803683370190505b509050825b600454811015610ca05760058181548110610bf657610bf6611368565b60009182526020909120600290910201546001600160a01b031683610c1b86846112ea565b81518110610c2b57610c2b611368565b60200260200101906001600160a01b031690816001600160a01b03168152505060058181548110610c5e57610c5e611368565b906000526020600020906002020160010154828583610c7d91906112ea565b81518110610c8d57610c8d611368565b6020908102919091010152600101610bd9565b50915091565b60058181548110610cb657600080fd5b6000918252602090912060029091020180546001909101546001600160a01b03909116915082565b610ce6610dd2565b6001600160a01b038116610d675760405162461bcd60e51b815260206004820152602660248201527f4f776e61626c653a206e6577206f776e657220697320746865207a65726f206160448201527f646472657373000000000000000000000000000000000000000000000000000060648201526084015b60405180910390fd5b61062b81610e86565b610d78610dd2565b6001600160a01b03811660009081526006602052604090205460ff16610db15760405163587f873960e11b815260040160405180910390fd5b6001600160a01b03166000908152600660205260409020805460ff19169055565b6000546001600160a01b0316331461049b5760405162461bcd60e51b815260206004820181905260248201527f4f776e61626c653a2063616c6c6572206973206e6f7420746865206f776e65726044820152606401610d5e565b600054600160a01b900460ff161561049b5760405162461bcd60e51b815260206004820152601060248201527f5061757361626c653a20706175736564000000000000000000000000000000006044820152606401610d5e565b600080546001600160a01b0383811673ffffffffffffffffffffffffffffffffffffffff19831681178455604051919092169283917f8be0079c531659141344cd1fd0a4f28419497f9722a3daafe3b4186f6b6457e09190a35050565b610eeb610e2c565b6000805460ff60a01b1916600160a01b1790557f62e78cea01bee320cd4e420270b5ea74000d11b0c9f74754ebdbfc544b05a258610f263390565b6040516001600160a01b03909116815260200160405180910390a1565b610f4b610f7f565b6000805460ff60a01b191690557f5db9ee0a495bf2e6ff9c91a7834c1ba4fdd244a5e8aa4e537bd38aeae4b073aa33610f26565b600054600160a01b900460ff1661049b5760405162461bcd60e51b815260206004820152601460248201527f5061757361626c653a206e6f74207061757365640000000000000000000000006044820152606401610d5e565b80356001600160a01b0381168114610fef57600080fd5b919050565b60006020828403121561100657600080fd5b61100f82610fd8565b9392505050565b60006020828403121561102857600080fd5b5035919050565b6000806040838503121561104257600080fd5b61104b83610fd8565b946020939093013593505050565b801515811461062b57600080fd5b60006020828403121561107957600080fd5b813561100f81611059565b634e487b7160e01b600052604160045260246000fd5b604051601f8201601f1916810167ffffffffffffffff811182821017156110c3576110c3611084565b604052919050565b600067ffffffffffffffff8211156110e5576110e5611084565b5060051b60200190565b600082601f83011261110057600080fd5b81356020611115611110836110cb565b61109a565b82815260059290921b8401810191818101908684111561113457600080fd5b8286015b8481101561114f5780358352918301918301611138565b509695505050505050565b6000806040838503121561116d57600080fd5b823567ffffffffffffffff8082111561118557600080fd5b818501915085601f83011261119957600080fd5b813560206111a9611110836110cb565b82815260059290921b840181019181810190898411156111c857600080fd5b948201945b838610156111ed576111de86610fd8565b825294820194908201906111cd565b9650508601359250508082111561120357600080fd5b50611210858286016110ef565b9150509250929050565b604080825283519082018190526000906020906060840190828701845b8281101561125c5781516001600160a01b031684529284019290840190600101611237565b5050508381038285015284518082528583019183019060005b8181101561129157835183529284019291840191600101611275565b5090979650505050505050565b6000602082840312156112b057600080fd5b815161100f81611059565b6000602082840312156112cd57600080fd5b5051919050565b634e487b7160e01b600052601160045260246000fd5b818103818111156112fd576112fd6112d4565b92915050565b80820281158282048414176112fd576112fd6112d4565b60008261133757634e487b7160e01b600052601260045260246000fd5b500490565b60006001820161134e5761134e6112d4565b5060010190565b808201808211156112fd576112fd6112d4565b634e487b7160e01b600052603260045260246000fdfea26469706673582212200c4f7156ccee4020c0d5d27130dc7ff4edce7e4dd211af7da34c8eed2b2c6dd464736f6c63430008110033",
  "linkReferences": {},
  "deployedLinkReferences": {}
}